:060000000A128A110E280D
:10000800FE00030EF4000408F5000A08F6000A12C0
:100018008A1157290A128A111128F701831203132A
:10002800B401B501B601B701B801B901BA01BB0104
:10003800BC0183010A128A11052A0A3083120313AC
:10004800A9000030AA006430A0000030A1003A08DE
:10005800B000B1013008A2003108A3000A128A11C9
:1000680093200A128A11831203132108AC00200876
:10007800AB000A128A11FC200A128A118312031398
:100088002908B2003208B9000A30A9000030AA00D5
:100098000A30A0000030A1003A08B000B1013008D1
:1000A800A2003108A3000A128A1193200A128A11A9
:1000B800831203132108AC002008AB000A128A112E
:1000C800FC200A128A11831203132908B20032088D
:1000D800B8000A30A9000030AA003A08B000B101FF
:1000E8003008AB003108AC000A128A11FC200A1251
:1000F8008A11831203132908B2003208B70039089D
:10010800303EB0003008B6003808303EB000300845
:10011800B5003708303EB0003008B400080083123C
:100128000313A601A11F99289A28A128A009A109AB
:10013800A00A0319A10AA601A60AA31FA428A52894
:10014800AE28A209A309A20A0319A30A0130A40030
:100158002408A606A701A801200821040319B52828
:10016800B628ED28A501A50AC42801300310A00D62
:10017800A10DFF3E031DBA280130A4002408A507DD
:10018800A11FC728C828B92801300310A70DA80D3A
:10019800FF3E031DC92821082302031DD528200876
:1001A8002202031CD828D928E0282008A202210806
:1001B800031CA303A302271401300310A10CA00CF5
:1001C800FF3E031DE1280130A502031DEC28ED28A0
:1001D800C82826080319F128F228F728A709A8092A
:1001E800A70A0319A80A2808A1002708A0000800E0
:1001F80083120313AF01AC1F022903290A29AB0993
:10020800AC09AB0A0319AC0AAF01AF0AAA1F0D2942
:100218000E291329A909AA09A90A0319AA0A29084A
:100228002A040319182919294829AE01AE0A2729D1
:1002380001300310A90DAA0DFF3E031D1D29013031
:10024800AD002D08AE07AA1F2A292B291C292A0828
:100258002C02031D312929082B02031C34293529B6
:100268003B292908AB022A08031CAC03AC02013065
:100278000310AA0CA90CFF3E031D3C290130AE0255
:10028800031D472948292B292F0803194C294D29D3
:100298005229AB09AC09AB0A0319AC0A2C08AA000D
:1002A8002B08A90008000B1C5A295B297829652905
:1002B800BC01BB017729BC01BC0A7729BB01BB0A79
:1002C8007729831203130608F200F3017308003A32
:1002D80003196F295C297208FD3A03196229033A48
:1002E80003195F295C290B10831203130C1E7D2947
:1002F8007E298A290130F2007208F7070A128A114A
:10030800CC210A128A11831203130C1276088A0070
:1003180075088400740E8300FE0E7E0E0900831299
:100328000313A200B529831603130F088F39403829
:100338008F000F14CB29831603130F088F395038F9
:100348008F000F14CB29831603130F088F396038D9
:100358008F000F14CB297030831603138F040F14EA
:10036800CB292208A000A1012108003A0319BD29C0
:10037800CB292008013A03199729033A03199F2921
:10038800063A0319A7290C3A0319AF29CB29080003
:10039800E8298312031336089900042A83120313E9
:1003A80035089900042A8312031334089900042A93
:1003B8000A30831203139900042A0D3083120313A1
:1003C8009900042AF701042A7708F000F10171085E
:1003D800003A0319F029042A7008013A0319CD29B3
:1003E800033A0319D229013A0319D729073A0319FD
:1003F800DC29013A0319E129113A0319E629042AEB
:1004080008000A128A1131220A128A118312031370
:100418003C03031D102A112A1A2A0618142A152A21
:100428001A2A0130B3003308BA07BC013B03031D85
:100438001E2A1F2A262A8618222A232A262A01301B
:10044800BA02BB013A0888000A128A1121200A124E
:100458008A110A2A0A128A110E288316031788019C
:100468008901831603130614861488018312031363
:100478008601880104300A128A1193210A128A110E
:100488000A128A115B220A128A1183160313811336
:10049800151495148B170B178B150B10161496142F
:1004A8000C168C16831203130C128C120800831678
:1004B80003131812181518138316031787118316B8
:1004C80003139A011930990083120313981718130C
:0A04D800181283160313981608008B
:04400E00D420FF3F7C
:00000001FF
